{
  "contractName": "MyContract",
  "abi": [
    {
      "anonymous": false,
      "inputs": [
        {
          "indexed": true,
          "internalType": "uint256",
          "name": "id",
          "type": "uint256"
        },
        {
          "indexed": true,
          "internalType": "uint256",
          "name": "date",
          "type": "uint256"
        },
        {
          "indexed": false,
          "internalType": "string",
          "name": "value",
          "type": "string"
        }
      ],
      "name": "MyEvent",
      "type": "event"
    },
    {
      "constant": false,
      "inputs": [
        {
          "internalType": "string",
          "name": "value",
          "type": "string"
        }
      ],
      "name": "emitEvent",
      "outputs": [],
      "payable": false,
      "stateMutability": "nonpayable",
      "type": "function"
    }
  ],
  "bytecode": "0x608060405234801561001057600080fd5b5061015a806100206000396000f3fe608060405234801561001057600080fd5b506004361061002b5760003560e01c8063982296a814610030575b600080fd5b6100a76004803603602081101561004657600080fd5b810190808035906020019064010000000081111561006357600080fd5b82018360208201111561007557600080fd5b8035906020019184600183028401116401000000008311171561009757600080fd5b90919293919293905050506100a9565b005b426000547fb471d59b9e8fe78ab0670c11fe84df6ab431139b43533ab6764e0b15b8d6c39a848460405180806020018281038252848482818152602001925080828437600081840152601f19601f820116905080830192505050935050505060405180910390a36000808154809291906001019190505550505056fea265627a7a7231582076040beacb0658ee726ebec3bd9143f47e5c6fd5f7afde8087805655411e67d664736f6c63430005100032",
  "source": "// SPDX-License-Identifier: MIT\r\npragma solidity ^0.5.16;\r\n\r\ncontract MyContract {\r\n    uint256 nextId;\r\n    event MyEvent(uint256 indexed id, uint256 indexed date, string value);\r\n\r\n    function emitEvent(string calldata value) external {\r\n        emit MyEvent(nextId, now, value);\r\n        nextId++;\r\n    }\r\n}\r\n\r\n/* uint256 data;\r\n\r\n    function getData() external view returns (uint256) {\r\n        return data;\r\n    }\r\n\r\n    function setData(uint256 _data) external {\r\n        data = _data;\r\n    }\r\n\r\n    function setDataPrivate(uint256 _data) private {\r\n        data = _data + 10;\r\n    }*/\r\n\r\n/*  string public functionCalled;\r\n\r\n    function sendEther() external payable {\r\n        functionCalled = \"sendEther\";\r\n    }\r\n\r\n    function() external payable {\r\n        functionCalled = \"fallback\";\r\n    }*/\r\n",
  "sourcePath": "D:\\learning\\Web3 tutorial\\contracts\\MyContract.sol",
  "compiler": {
    "name": "solc",
    "version": "0.5.16+commit.9c3226ce.Emscripten.clang"
  },
  "schemaVersion": "3.4.3",
  "updatedAt": "2021-10-14T15:10:58.834Z",
  "networkType": "ethereum",
  "devdoc": {
    "methods": {}
  },
  "userdoc": {
    "methods": {}
  }
}